{
    "contractName": "LegatoID",
    "abi": [
        {
            "inputs": [
                {
                    "internalType": "address",
                    "name": "signer",
                    "type": "address"
                }
            ],
            "stateMutability": "nonpayable",
            "type": "constructor"
        },
        {
            "anonymous": false,
            "inputs": [
                {
                    "indexed": true,
                    "internalType": "address",
                    "name": "owner",
                    "type": "address"
                },
                {
                    "indexed": true,
                    "internalType": "address",
                    "name": "approved",
                    "type": "address"
                },
                {
                    "indexed": true,
                    "internalType": "uint256",
                    "name": "tokenId",
                    "type": "uint256"
                }
            ],
            "name": "Approval",
            "type": "event"
        },
        {
            "anonymous": false,
            "inputs": [
                {
                    "indexed": true,
                    "internalType": "address",
                    "name": "owner",
                    "type": "address"
                },
                {
                    "indexed": true,
                    "internalType": "address",
                    "name": "operator",
                    "type": "address"
                },
                {
                    "indexed": false,
                    "internalType": "bool",
                    "name": "approved",
                    "type": "bool"
                }
            ],
            "name": "ApprovalForAll",
            "type": "event"
        },
        {
            "anonymous": false,
            "inputs": [
                {
                    "indexed": true,
                    "internalType": "address",
                    "name": "previousOwner",
                    "type": "address"
                },
                {
                    "indexed": true,
                    "internalType": "address",
                    "name": "newOwner",
                    "type": "address"
                }
            ],
            "name": "OwnershipTransferred",
            "type": "event"
        },
        {
            "anonymous": false,
            "inputs": [
                {
                    "indexed": true,
                    "internalType": "bytes32",
                    "name": "role",
                    "type": "bytes32"
                },
                {
                    "indexed": true,
                    "internalType": "bytes32",
                    "name": "previousAdminRole",
                    "type": "bytes32"
                },
                {
                    "indexed": true,
                    "internalType": "bytes32",
                    "name": "newAdminRole",
                    "type": "bytes32"
                }
            ],
            "name": "RoleAdminChanged",
            "type": "event"
        },
        {
            "anonymous": false,
            "inputs": [
                {
                    "indexed": true,
                    "internalType": "bytes32",
                    "name": "role",
                    "type": "bytes32"
                },
                {
                    "indexed": true,
                    "internalType": "address",
                    "name": "account",
                    "type": "address"
                },
                {
                    "indexed": true,
                    "internalType": "address",
                    "name": "sender",
                    "type": "address"
                }
            ],
            "name": "RoleGranted",
            "type": "event"
        },
        {
            "anonymous": false,
            "inputs": [
                {
                    "indexed": true,
                    "internalType": "bytes32",
                    "name": "role",
                    "type": "bytes32"
                },
                {
                    "indexed": true,
                    "internalType": "address",
                    "name": "account",
                    "type": "address"
                },
                {
                    "indexed": true,
                    "internalType": "address",
                    "name": "sender",
                    "type": "address"
                }
            ],
            "name": "RoleRevoked",
            "type": "event"
        },
        {
            "anonymous": false,
            "inputs": [
                {
                    "indexed": true,
                    "internalType": "address",
                    "name": "from",
                    "type": "address"
                },
                {
                    "indexed": true,
                    "internalType": "address",
                    "name": "to",
                    "type": "address"
                },
                {
                    "indexed": true,
                    "internalType": "uint256",
                    "name": "tokenId",
                    "type": "uint256"
                }
            ],
            "name": "Transfer",
            "type": "event"
        },
        {
            "inputs": [],
            "name": "DEFAULT_ADMIN_ROLE",
            "outputs": [
                {
                    "internalType": "bytes32",
                    "name": "",
                    "type": "bytes32"
                }
            ],
            "stateMutability": "view",
            "type": "function"
        },
        {
            "inputs": [],
            "name": "ID_OWNER_ROLE",
            "outputs": [
                {
                    "internalType": "bytes32",
                    "name": "",
                    "type": "bytes32"
                }
            ],
            "stateMutability": "view",
            "type": "function"
        },
        {
            "inputs": [],
            "name": "MINT_COST_PER_TOKEN",
            "outputs": [
                {
                    "internalType": "uint256",
                    "name": "",
                    "type": "uint256"
                }
            ],
            "stateMutability": "view",
            "type": "function"
        },
        {
            "inputs": [],
            "name": "SIGNER_ROLE",
            "outputs": [
                {
                    "internalType": "bytes32",
                    "name": "",
                    "type": "bytes32"
                }
            ],
            "stateMutability": "view",
            "type": "function"
        },
        {
            "inputs": [
                {
                    "internalType": "address",
                    "name": "to",
                    "type": "address"
                },
                {
                    "internalType": "uint256",
                    "name": "tokenId",
                    "type": "uint256"
                }
            ],
            "name": "approve",
            "outputs": [],
            "stateMutability": "nonpayable",
            "type": "function"
        },
        {
            "inputs": [
                {
                    "internalType": "address",
                    "name": "owner",
                    "type": "address"
                }
            ],
            "name": "balanceOf",
            "outputs": [
                {
                    "internalType": "uint256",
                    "name": "",
                    "type": "uint256"
                }
            ],
            "stateMutability": "view",
            "type": "function"
        },
        {
            "inputs": [
                {
                    "internalType": "uint256",
                    "name": "expiresAt",
                    "type": "uint256"
                },
                {
                    "internalType": "bytes",
                    "name": "signature",
                    "type": "bytes"
                }
            ],
            "name": "burn",
            "outputs": [],
            "stateMutability": "nonpayable",
            "type": "function"
        },
        {
            "inputs": [
                {
                    "internalType": "uint256",
                    "name": "tokenId",
                    "type": "uint256"
                }
            ],
            "name": "getApproved",
            "outputs": [
                {
                    "internalType": "address",
                    "name": "",
                    "type": "address"
                }
            ],
            "stateMutability": "view",
            "type": "function"
        },
        {
            "inputs": [
                {
                    "internalType": "address",
                    "name": "forAddress",
                    "type": "address"
                }
            ],
            "name": "getNonce",
            "outputs": [
                {
                    "internalType": "uint256",
                    "name": "",
                    "type": "uint256"
                }
            ],
            "stateMutability": "view",
            "type": "function"
        },
        {
            "inputs": [
                {
                    "internalType": "bytes32",
                    "name": "role",
                    "type": "bytes32"
                }
            ],
            "name": "getRoleAdmin",
            "outputs": [
                {
                    "internalType": "bytes32",
                    "name": "",
                    "type": "bytes32"
                }
            ],
            "stateMutability": "view",
            "type": "function"
        },
        {
            "inputs": [
                {
                    "internalType": "bytes32",
                    "name": "role",
                    "type": "bytes32"
                },
                {
                    "internalType": "address",
                    "name": "account",
                    "type": "address"
                }
            ],
            "name": "grantRole",
            "outputs": [],
            "stateMutability": "nonpayable",
            "type": "function"
        },
        {
            "inputs": [
                {
                    "internalType": "bytes32",
                    "name": "role",
                    "type": "bytes32"
                },
                {
                    "internalType": "address",
                    "name": "account",
                    "type": "address"
                }
            ],
            "name": "hasRole",
            "outputs": [
                {
                    "internalType": "bool",
                    "name": "",
                    "type": "bool"
                }
            ],
            "stateMutability": "view",
            "type": "function"
        },
        {
            "inputs": [
                {
                    "internalType": "address",
                    "name": "owner",
                    "type": "address"
                },
                {
                    "internalType": "address",
                    "name": "operator",
                    "type": "address"
                }
            ],
            "name": "isApprovedForAll",
            "outputs": [
                {
                    "internalType": "bool",
                    "name": "",
                    "type": "bool"
                }
            ],
            "stateMutability": "view",
            "type": "function"
        },
        {
            "inputs": [
                {
                    "internalType": "uint256",
                    "name": "expiresAt",
                    "type": "uint256"
                },
                {
                    "internalType": "bytes",
                    "name": "signature",
                    "type": "bytes"
                }
            ],
            "name": "mint",
            "outputs": [],
            "stateMutability": "payable",
            "type": "function"
        },
        {
            "inputs": [],
            "name": "name",
            "outputs": [
                {
                    "internalType": "string",
                    "name": "",
                    "type": "string"
                }
            ],
            "stateMutability": "view",
            "type": "function"
        },
        {
            "inputs": [
                {
                    "internalType": "address",
                    "name": "",
                    "type": "address"
                }
            ],
            "name": "nonces",
            "outputs": [
                {
                    "internalType": "uint256",
                    "name": "",
                    "type": "uint256"
                }
            ],
            "stateMutability": "view",
            "type": "function"
        },
        {
            "inputs": [],
            "name": "owner",
            "outputs": [
                {
                    "internalType": "address",
                    "name": "",
                    "type": "address"
                }
            ],
            "stateMutability": "view",
            "type": "function"
        },
        {
            "inputs": [
                {
                    "internalType": "uint256",
                    "name": "tokenId",
                    "type": "uint256"
                }
            ],
            "name": "ownerOf",
            "outputs": [
                {
                    "internalType": "address",
                    "name": "",
                    "type": "address"
                }
            ],
            "stateMutability": "view",
            "type": "function"
        },
        {
            "inputs": [],
            "name": "renounceOwnership",
            "outputs": [],
            "stateMutability": "nonpayable",
            "type": "function"
        },
        {
            "inputs": [
                {
                    "internalType": "bytes32",
                    "name": "role",
                    "type": "bytes32"
                },
                {
                    "internalType": "address",
                    "name": "account",
                    "type": "address"
                }
            ],
            "name": "renounceRole",
            "outputs": [],
            "stateMutability": "nonpayable",
            "type": "function"
        },
        {
            "inputs": [
                {
                    "internalType": "bytes32",
                    "name": "role",
                    "type": "bytes32"
                },
                {
                    "internalType": "address",
                    "name": "account",
                    "type": "address"
                }
            ],
            "name": "revokeRole",
            "outputs": [],
            "stateMutability": "nonpayable",
            "type": "function"
        },
        {
            "inputs": [
                {
                    "internalType": "address",
                    "name": "from",
                    "type": "address"
                },
                {
                    "internalType": "address",
                    "name": "to",
                    "type": "address"
                },
                {
                    "internalType": "uint256",
                    "name": "tokenId",
                    "type": "uint256"
                }
            ],
            "name": "safeTransferFrom",
            "outputs": [],
            "stateMutability": "nonpayable",
            "type": "function"
        },
        {
            "inputs": [
                {
                    "internalType": "address",
                    "name": "from",
                    "type": "address"
                },
                {
                    "internalType": "address",
                    "name": "to",
                    "type": "address"
                },
                {
                    "internalType": "uint256",
                    "name": "tokenId",
                    "type": "uint256"
                },
                {
                    "internalType": "bytes",
                    "name": "_data",
                    "type": "bytes"
                }
            ],
            "name": "safeTransferFrom",
            "outputs": [],
            "stateMutability": "nonpayable",
            "type": "function"
        },
        {
            "inputs": [
                {
                    "internalType": "address",
                    "name": "operator",
                    "type": "address"
                },
                {
                    "internalType": "bool",
                    "name": "approved",
                    "type": "bool"
                }
            ],
            "name": "setApprovalForAll",
            "outputs": [],
            "stateMutability": "nonpayable",
            "type": "function"
        },
        {
            "inputs": [
                {
                    "internalType": "bytes4",
                    "name": "interfaceId",
                    "type": "bytes4"
                }
            ],
            "name": "supportsInterface",
            "outputs": [
                {
                    "internalType": "bool",
                    "name": "",
                    "type": "bool"
                }
            ],
            "stateMutability": "view",
            "type": "function"
        },
        {
            "inputs": [],
            "name": "symbol",
            "outputs": [
                {
                    "internalType": "string",
                    "name": "",
                    "type": "string"
                }
            ],
            "stateMutability": "view",
            "type": "function"
        },
        {
            "inputs": [
                {
                    "internalType": "uint256",
                    "name": "tokenId",
                    "type": "uint256"
                }
            ],
            "name": "tokenURI",
            "outputs": [
                {
                    "internalType": "string",
                    "name": "",
                    "type": "string"
                }
            ],
            "stateMutability": "view",
            "type": "function"
        },
        {
            "inputs": [
                {
                    "internalType": "address",
                    "name": "from",
                    "type": "address"
                },
                {
                    "internalType": "address",
                    "name": "to",
                    "type": "address"
                },
                {
                    "internalType": "uint256",
                    "name": "tokenId",
                    "type": "uint256"
                }
            ],
            "name": "transferFrom",
            "outputs": [],
            "stateMutability": "nonpayable",
            "type": "function"
        },
        {
            "inputs": [
                {
                    "internalType": "address",
                    "name": "newOwner",
                    "type": "address"
                }
            ],
            "name": "transferOwnership",
            "outputs": [],
            "stateMutability": "nonpayable",
            "type": "function"
        }
    ],
    "bytecode": "60806040523480156200001157600080fd5b506040516200312438038062003124833981016040819052620000349162000411565b60405180604001604052806009815260200168131959d85d1bc8125160ba1b8152506040518060400160405280600381526020016213125160ea1b8152506200008c62000086620001f560201b60201c565b620001f9565b600180558151620000a59060039060208501906200036b565b508051620000bb9060049060208401906200036b565b50506000546001600160a01b0316151590506200011e5760405162461bcd60e51b815260206004820152601d60248201527f4f776e657220616464726573732063616e6e6f7420626520656d707479000000604482015260640160405180910390fd5b6200014b60008051602062003104833981519152620001456000546001600160a01b031690565b62000249565b62000166600080516020620031048339815191528262000249565b60408051808201909152600c81526b029a7a61d1037bbb732b91d160a51b6020820152620001b290620001a16000546001600160a01b031690565b6200025960201b620014541760201c565b620001ee6040518060400160405280600d81526020016c029a7a61d1039b4b3b732b91d1609d1b815250826200025960201b620014541760201c565b50620004e9565b3390565b600080546001600160a01b038381166001600160a01b0319831681178455604051919092169283917f8be0079c531659141344cd1fd0a4f28419497f9722a3daafe3b4186f6b6457e09190a35050565b620002558282620002a6565b5050565b6200025582826040516024016200027292919062000443565b60408051601f198184030181529190526020810180516001600160e01b0390811663319af33360e01b179091526200034a16565b60008281526002602090815260408083206001600160a01b038516845290915290205460ff16620002555760008281526002602090815260408083206001600160a01b03851684529091529020805460ff19166001179055620003063390565b6001600160a01b0316816001600160a01b0316837f2f8788117e7eff1d82e926ec794901d17c78024a50270940304540a733656f0d60405160405180910390a45050565b80516a636f6e736f6c652e6c6f67602083016000808483855afa5050505050565b8280546200037990620004ac565b90600052602060002090601f0160209004810192826200039d5760008555620003e8565b82601f10620003b857805160ff1916838001178555620003e8565b82800160010185558215620003e8579182015b82811115620003e8578251825591602001919060010190620003cb565b50620003f6929150620003fa565b5090565b5b80821115620003f65760008155600101620003fb565b6000602082840312156200042457600080fd5b81516001600160a01b03811681146200043c57600080fd5b9392505050565b604081526000835180604084015260005b8181101562000473576020818701810151606086840101520162000454565b8181111562000486576000606083860101525b506001600160a01b0393909316602083015250601f91909101601f191601606001919050565b600181811c90821680620004c157607f821691505b60208210811415620004e357634e487b7160e01b600052602260045260246000fd5b50919050565b612c0b80620004f96000396000f3fe6080604052600436106101c25760003560e01c8063715018a6116100f7578063a22cb46511610095578063db7fd40811610064578063db7fd40814610559578063e985e9c51461056c578063f2fde38b146105b5578063fe9d9303146105d557600080fd5b8063a22cb465146104d9578063b88d4fde146104f9578063c87b56dd14610519578063d547741f1461053957600080fd5b806391d14854116100d157806391d148541461045b57806395d89b411461047b578063a1ebf35d14610490578063a217fddf146104c457600080fd5b8063715018a6146103fb5780637ecebe00146104105780638da5cb5b1461043d57600080fd5b80632dc2c0071161016457806336568abe1161013e57806336568abe1461037b57806342842e0e1461039b5780636352211e146103bb57806370a08231146103db57600080fd5b80632dc2c0071461030c5780632f2ff15d14610327578063358ff1d21461034757600080fd5b8063095ea7b3116101a0578063095ea7b31461025657806323b872dd14610278578063248a9ca3146102985780632d0335ab146102d657600080fd5b806301ffc9a7146101c757806306fdde03146101fc578063081812fc1461021e575b600080fd5b3480156101d357600080fd5b506101e76101e236600461252e565b6105f5565b60405190151581526020015b60405180910390f35b34801561020857600080fd5b50610211610606565b6040516101f391906125a3565b34801561022a57600080fd5b5061023e6102393660046125b6565b610698565b6040516001600160a01b0390911681526020016101f3565b34801561026257600080fd5b506102766102713660046125eb565b610732565b005b34801561028457600080fd5b50610276610293366004612615565b610848565b3480156102a457600080fd5b506102c86102b33660046125b6565b60009081526002602052604090206001015490565b6040519081526020016101f3565b3480156102e257600080fd5b506102c86102f1366004612651565b6001600160a01b031660009081526009602052604090205490565b34801561031857600080fd5b506102c86602f2e16f29e00081565b34801561033357600080fd5b5061027661034236600461266c565b610879565b34801561035357600080fd5b506102c87f3344c3c686429c821855941ec1ec464e3f9ceef8b539c26882b8b44a8fc37e4e81565b34801561038757600080fd5b5061027661039636600461266c565b61089f565b3480156103a757600080fd5b506102766103b6366004612615565b61091d565b3480156103c757600080fd5b5061023e6103d63660046125b6565b610938565b3480156103e757600080fd5b506102c86103f6366004612651565b6109af565b34801561040757600080fd5b50610276610a36565b34801561041c57600080fd5b506102c861042b366004612651565b60096020526000908152604090205481565b34801561044957600080fd5b506000546001600160a01b031661023e565b34801561046757600080fd5b506101e761047636600461266c565b610a9c565b34801561048757600080fd5b50610211610ac7565b34801561049c57600080fd5b506102c87fe2f4eaae4a9751e85a3e4a7b9587827a877f29914755229b07a7b2da98285f7081565b3480156104d057600080fd5b506102c8600081565b3480156104e557600080fd5b506102766104f4366004612698565b610ad6565b34801561050557600080fd5b506102766105143660046126ea565b610ae1565b34801561052557600080fd5b506102116105343660046125b6565b610b19565b34801561054557600080fd5b5061027661055436600461266c565b610c01565b6102766105673660046127c6565b610c27565b34801561057857600080fd5b506101e7610587366004612842565b6001600160a01b03918216600090815260086020908152604080832093909416825291909152205460ff1690565b3480156105c157600080fd5b506102766105d0366004612651565b611004565b3480156105e157600080fd5b506102766105f03660046127c6565b6110cf565b600061060082611499565b92915050565b6060600380546106159061286c565b80601f01602080910402602001604051908101604052809291908181526020018280546106419061286c565b801561068e5780601f106106635761010080835404028352916020019161068e565b820191906000526020600020905b81548152906001019060200180831161067157829003601f168201915b5050505050905090565b6000818152600560205260408120546001600160a01b03166107165760405162461bcd60e51b815260206004820152602c60248201527f4552433732313a20617070726f76656420717565727920666f72206e6f6e657860448201526b34b9ba32b73a103a37b5b2b760a11b60648201526084015b60405180910390fd5b506000908152600760205260409020546001600160a01b031690565b600061073d82610938565b9050806001600160a01b0316836001600160a01b031614156107ab5760405162461bcd60e51b815260206004820152602160248201527f4552433732313a20617070726f76616c20746f2063757272656e74206f776e656044820152603960f91b606482015260840161070d565b336001600160a01b03821614806107c757506107c78133610587565b6108395760405162461bcd60e51b815260206004820152603860248201527f4552433732313a20617070726f76652063616c6c6572206973206e6f74206f7760448201527f6e6572206e6f7220617070726f76656420666f7220616c6c0000000000000000606482015260840161070d565b61084383836114d9565b505050565b6108523382611547565b61086e5760405162461bcd60e51b815260040161070d906128a7565b61084383838361163e565b60008281526002602052604090206001015461089581336117e5565b6108438383611849565b6001600160a01b038116331461090f5760405162461bcd60e51b815260206004820152602f60248201527f416363657373436f6e74726f6c3a2063616e206f6e6c792072656e6f756e636560448201526e103937b632b9903337b91039b2b63360891b606482015260840161070d565b61091982826118cf565b5050565b61084383838360405180602001604052806000815250610ae1565b6000818152600560205260408120546001600160a01b0316806106005760405162461bcd60e51b815260206004820152602960248201527f4552433732313a206f776e657220717565727920666f72206e6f6e657869737460448201526832b73a103a37b5b2b760b91b606482015260840161070d565b60006001600160a01b038216610a1a5760405162461bcd60e51b815260206004820152602a60248201527f4552433732313a2062616c616e636520717565727920666f7220746865207a65604482015269726f206164647265737360b01b606482015260840161070d565b506001600160a01b031660009081526006602052604090205490565b6000546001600160a01b03163314610a905760405162461bcd60e51b815260206004820181905260248201527f4f776e61626c653a2063616c6c6572206973206e6f7420746865206f776e6572604482015260640161070d565b610a9a6000611936565b565b60009182526002602090815260408084206001600160a01b0393909316845291905290205460ff1690565b6060600480546106159061286c565b610919338383611986565b610aeb3383611547565b610b075760405162461bcd60e51b815260040161070d906128a7565b610b1384848484611a55565b50505050565b6000818152600560205260409020546060906001600160a01b0316610b985760405162461bcd60e51b815260206004820152602f60248201527f4552433732314d657461646174613a2055524920717565727920666f72206e6f60448201526e3732bc34b9ba32b73a103a37b5b2b760891b606482015260840161070d565b6000610baf60408051602081019091526000815290565b90506000815111610bcf5760405180602001604052806000815250610bfa565b80610bd984611a88565b604051602001610bea9291906128f8565b6040516020818303038152906040525b9392505050565b600082815260026020526040902060010154610c1d81336117e5565b61084383836118cf565b33838383824310610c725760405162461bcd60e51b815260206004820152601560248201527414da59db985d1d5c99481a185cc8195e1c1a5c9959605a1b604482015260640161070d565b610cc46040518060400160405280600b81526020016a029a7a61d103737b731b2960ad1b81525060096000876001600160a01b03166001600160a01b0316815260200190815260200160002054611b86565b610cf860405180604001604052806012815260200171029a7a61d1032bc3834b93290313637b1b5960751b81525084611b86565b610d2d60405180604001604052806013815260200172029a7a61d1031bab93932b73a10313637b1b59606d1b81525043611b86565b6001600160a01b0384166000908152600960209081526040808320549051610d5d92889288923092469101612927565b6040516020818303038152906040528051906020012090506000610d8082611bcb565b90506000610dc48286868080601f016020809104026020016040519081016040528093929190818152602001838380828437600092019190915250611c1e92505050565b9050610dfb6040518060400160405280600d81526020016c029a7a61d1039b2b73232b91d1609d1b815250610df63390565b611454565b610e2d6040518060400160405280601081526020016f029a7a61d103932b1b7bb32b932b21d160851b81525082611454565b610e577fe2f4eaae4a9751e85a3e4a7b9587827a877f29914755229b07a7b2da98285f7082610a9c565b610e945760405162461bcd60e51b815260206004820152600e60248201526d24b73b30b634b21039b4b3b732b960911b604482015260640161070d565b336000818152600960205260408120805460019290610eb490849061297e565b909155505060015460021415610f0c5760405162461bcd60e51b815260206004820152601f60248201527f5265656e7472616e637947756172643a207265656e7472616e742063616c6c00604482015260640161070d565b60026001556602f2e16f29e000341015610f685760405162461bcd60e51b815260206004820152601f60248201527f546f6b656e206d696e7420726571756972657320302e30303038332045544800604482015260640161070d565b610f76600b80546001019055565b6000610f81600b5490565b9050610f8c336109af565b15610fd95760405162461bcd60e51b815260206004820152601d60248201527f42616c616e6365206265666f7265206d696e74206d7573742062652030000000604482015260640161070d565b610fe33382611c42565b336000908152600a6020526040902055505060018055505050505050505050565b6000546001600160a01b0316331461105e5760405162461bcd60e51b815260206004820181905260248201527f4f776e61626c653a2063616c6c6572206973206e6f7420746865206f776e6572604482015260640161070d565b6001600160a01b0381166110c35760405162461bcd60e51b815260206004820152602660248201527f4f776e61626c653a206e6577206f776e657220697320746865207a65726f206160448201526564647265737360d01b606482015260840161070d565b6110cc81611936565b50565b3383838382431061111a5760405162461bcd60e51b815260206004820152601560248201527414da59db985d1d5c99481a185cc8195e1c1a5c9959605a1b604482015260640161070d565b61116c6040518060400160405280600b81526020016a029a7a61d103737b731b2960ad1b81525060096000876001600160a01b03166001600160a01b0316815260200190815260200160002054611b86565b6111a060405180604001604052806012815260200171029a7a61d1032bc3834b93290313637b1b5960751b81525084611b86565b6111d560405180604001604052806013815260200172029a7a61d1031bab93932b73a10313637b1b59606d1b81525043611b86565b6001600160a01b038416600090815260096020908152604080832054905161120592889288923092469101612927565b604051602081830303815290604052805190602001209050600061122882611bcb565b9050600061126c8286868080601f016020809104026020016040519081016040528093929190818152602001838380828437600092019190915250611c1e92505050565b905061129e6040518060400160405280600d81526020016c029a7a61d1039b2b73232b91d1609d1b815250610df63390565b6112d06040518060400160405280601081526020016f029a7a61d103932b1b7bb32b932b21d160851b81525082611454565b6112fa7fe2f4eaae4a9751e85a3e4a7b9587827a877f29914755229b07a7b2da98285f7082610a9c565b6113375760405162461bcd60e51b815260206004820152600e60248201526d24b73b30b634b21039b4b3b732b960911b604482015260640161070d565b33600081815260096020526040812080546001929061135790849061297e565b9091555060009050611368336109af565b116113c15760405162461bcd60e51b8152602060048201526024808201527f6d75737420686176652062616c616e63652061626f7665207a65726f20746f20604482015263313ab93760e11b606482015260840161070d565b336000908152600a60205260409020546113da90611d90565b336000818152600a60205260408120819055906113f6906109af565b905080156114465760405162461bcd60e51b815260206004820152601c60248201527f42616c616e6365206166746572206275726e206d757374206265203000000000604482015260640161070d565b505050505050505050505050565b610919828260405160240161146a929190612996565b60408051601f198184030181529190526020810180516001600160e01b031663319af33360e01b179052611e37565b60006001600160e01b031982166380ac58cd60e01b14806114ca57506001600160e01b03198216635b5e139f60e01b145b80610600575061060082611e58565b600081815260076020526040902080546001600160a01b0319166001600160a01b038416908117909155819061150e82610938565b6001600160a01b03167f8c5be1e5ebec7d5bd14f71427d1e84f3dd0314c0f7b2291e5b200ac8c7c3b92560405160405180910390a45050565b6000818152600560205260408120546001600160a01b03166115c05760405162461bcd60e51b815260206004820152602c60248201527f4552433732313a206f70657261746f7220717565727920666f72206e6f6e657860448201526b34b9ba32b73a103a37b5b2b760a11b606482015260840161070d565b60006115cb83610938565b9050806001600160a01b0316846001600160a01b031614806116065750836001600160a01b03166115fb84610698565b6001600160a01b0316145b8061163657506001600160a01b0380821660009081526008602090815260408083209388168352929052205460ff165b949350505050565b826001600160a01b031661165182610938565b6001600160a01b0316146116b55760405162461bcd60e51b815260206004820152602560248201527f4552433732313a207472616e736665722066726f6d20696e636f72726563742060448201526437bbb732b960d91b606482015260840161070d565b6001600160a01b0382166117175760405162461bcd60e51b8152602060048201526024808201527f4552433732313a207472616e7366657220746f20746865207a65726f206164646044820152637265737360e01b606482015260840161070d565b611722838383611e8d565b61172d6000826114d9565b6001600160a01b03831660009081526006602052604081208054600192906117569084906129c0565b90915550506001600160a01b038216600090815260066020526040812080546001929061178490849061297e565b909155505060008181526005602052604080822080546001600160a01b0319166001600160a01b0386811691821790925591518493918716917fddf252ad1be2c89b69c2b068fc378daa952ba7f163c4a11628f55a4df523b3ef91a4505050565b6117ef8282610a9c565b61091957611807816001600160a01b03166014611f2d565b611812836020611f2d565b6040516020016118239291906129d7565b60408051601f198184030181529082905262461bcd60e51b825261070d916004016125a3565b6118538282610a9c565b6109195760008281526002602090815260408083206001600160a01b03851684529091529020805460ff1916600117905561188b3390565b6001600160a01b0316816001600160a01b0316837f2f8788117e7eff1d82e926ec794901d17c78024a50270940304540a733656f0d60405160405180910390a45050565b6118d98282610a9c565b156109195760008281526002602090815260408083206001600160a01b0385168085529252808320805460ff1916905551339285917ff6391f5c32d9c69d2a47ea670b442974b53935d1edc7fd64eb21e047a839171b9190a45050565b600080546001600160a01b038381166001600160a01b0319831681178455604051919092169283917f8be0079c531659141344cd1fd0a4f28419497f9722a3daafe3b4186f6b6457e09190a35050565b816001600160a01b0316836001600160a01b031614156119e85760405162461bcd60e51b815260206004820152601960248201527f4552433732313a20617070726f766520746f2063616c6c657200000000000000604482015260640161070d565b6001600160a01b03838116600081815260086020908152604080832094871680845294825291829020805460ff191686151590811790915591519182527f17307eab39ab6107e8899845ad3d59bd9653f200f220920489ca2b5937696c31910160405180910390a3505050565b611a6084848461163e565b611a6c848484846120c9565b610b135760405162461bcd60e51b815260040161070d90612a4c565b606081611aac5750506040805180820190915260018152600360fc1b602082015290565b8160005b8115611ad65780611ac081612a9e565b9150611acf9050600a83612acf565b9150611ab0565b60008167ffffffffffffffff811115611af157611af16126d4565b6040519080825280601f01601f191660200182016040528015611b1b576020820181803683370190505b5090505b841561163657611b306001836129c0565b9150611b3d600a86612ae3565b611b4890603061297e565b60f81b818381518110611b5d57611b5d612af7565b60200101906001600160f81b031916908160001a905350611b7f600a86612acf565b9450611b1f565b6109198282604051602401611b9c929190612b0d565b60408051601f198184030181529190526020810180516001600160e01b03166309710a9d60e41b179052611e37565b6040517f19457468657265756d205369676e6564204d6573736167653a0a3332000000006020820152603c8101829052600090605c01604051602081830303815290604052805190602001209050919050565b6000806000611c2d85856121c7565b91509150611c3a81612237565b509392505050565b6001600160a01b038216611c985760405162461bcd60e51b815260206004820181905260248201527f4552433732313a206d696e7420746f20746865207a65726f2061646472657373604482015260640161070d565b6000818152600560205260409020546001600160a01b031615611cfd5760405162461bcd60e51b815260206004820152601c60248201527f4552433732313a20746f6b656e20616c7265616479206d696e74656400000000604482015260640161070d565b611d0960008383611e8d565b6001600160a01b0382166000908152600660205260408120805460019290611d3290849061297e565b909155505060008181526005602052604080822080546001600160a01b0319166001600160a01b03861690811790915590518392907fddf252ad1be2c89b69c2b068fc378daa952ba7f163c4a11628f55a4df523b3ef908290a45050565b6000611d9b82610938565b9050611da981600084611e8d565b611db46000836114d9565b6001600160a01b0381166000908152600660205260408120805460019290611ddd9084906129c0565b909155505060008281526005602052604080822080546001600160a01b0319169055518391906001600160a01b038416907fddf252ad1be2c89b69c2b068fc378daa952ba7f163c4a11628f55a4df523b3ef908390a45050565b80516a636f6e736f6c652e6c6f67602083016000808483855afa5050505050565b60006001600160e01b03198216637965db0b60e01b148061060057506301ffc9a760e01b6001600160e01b0319831614610600565b6001600160a01b038316158015611eac57506001600160a01b03821615155b80611ed157506001600160a01b03831615801590611ed157506001600160a01b038216155b6108435760405162461bcd60e51b815260206004820152602760248201527f4f6e6c79206d696e74206f72206275726e207472616e73666572732061726520604482015266185b1b1bddd95960ca1b606482015260840161070d565b60606000611f3c836002612b2f565b611f4790600261297e565b67ffffffffffffffff811115611f5f57611f5f6126d4565b6040519080825280601f01601f191660200182016040528015611f89576020820181803683370190505b509050600360fc1b81600081518110611fa457611fa4612af7565b60200101906001600160f81b031916908160001a905350600f60fb1b81600181518110611fd357611fd3612af7565b60200101906001600160f81b031916908160001a9053506000611ff7846002612b2f565b61200290600161297e565b90505b600181111561207a576f181899199a1a9b1b9c1cb0b131b232b360811b85600f166010811061203657612036612af7565b1a60f81b82828151811061204c5761204c612af7565b60200101906001600160f81b031916908160001a90535060049490941c9361207381612b4e565b9050612005565b508315610bfa5760405162461bcd60e51b815260206004820181905260248201527f537472696e67733a20686578206c656e67746820696e73756666696369656e74604482015260640161070d565b60006001600160a01b0384163b156121bc57604051630a85bd0160e11b81526001600160a01b0385169063150b7a029061210d903390899088908890600401612b65565b6020604051808303816000875af1925050508015612148575060408051601f3d908101601f1916820190925261214591810190612ba2565b60015b6121a2573d808015612176576040519150601f19603f3d011682016040523d82523d6000602084013e61217b565b606091505b50805161219a5760405162461bcd60e51b815260040161070d90612a4c565b805181602001fd5b6001600160e01b031916630a85bd0160e11b149050611636565b506001949350505050565b6000808251604114156121fe5760208301516040840151606085015160001a6121f2878285856123f2565b94509450505050612230565b825160401415612228576020830151604084015161221d8683836124df565b935093505050612230565b506000905060025b9250929050565b600081600481111561224b5761224b612bbf565b14156122545750565b600181600481111561226857612268612bbf565b14156122b65760405162461bcd60e51b815260206004820152601860248201527f45434453413a20696e76616c6964207369676e61747572650000000000000000604482015260640161070d565b60028160048111156122ca576122ca612bbf565b14156123185760405162461bcd60e51b815260206004820152601f60248201527f45434453413a20696e76616c6964207369676e6174757265206c656e67746800604482015260640161070d565b600381600481111561232c5761232c612bbf565b14156123855760405162461bcd60e51b815260206004820152602260248201527f45434453413a20696e76616c6964207369676e6174757265202773272076616c604482015261756560f01b606482015260840161070d565b600481600481111561239957612399612bbf565b14156110cc5760405162461bcd60e51b815260206004820152602260248201527f45434453413a20696e76616c6964207369676e6174757265202776272076616c604482015261756560f01b606482015260840161070d565b6000807f7fffffffffffffffffffffffffffffff5d576e7357a4501ddfe92f46681b20a083111561242957506000905060036124d6565b8460ff16601b1415801561244157508460ff16601c14155b1561245257506000905060046124d6565b6040805160008082526020820180845289905260ff881692820192909252606081018690526080810185905260019060a0016020604051602081039080840390855afa1580156124a6573d6000803e3d6000fd5b5050604051601f1901519150506001600160a01b0381166124cf576000600192509250506124d6565b9150600090505b94509492505050565b6000806001600160ff1b038316816124fc60ff86901c601b61297e565b905061250a878288856123f2565b935093505050935093915050565b6001600160e01b0319811681146110cc57600080fd5b60006020828403121561254057600080fd5b8135610bfa81612518565b60005b8381101561256657818101518382015260200161254e565b83811115610b135750506000910152565b6000815180845261258f81602086016020860161254b565b601f01601f19169290920160200192915050565b602081526000610bfa6020830184612577565b6000602082840312156125c857600080fd5b5035919050565b80356001600160a01b03811681146125e657600080fd5b919050565b600080604083850312156125fe57600080fd5b612607836125cf565b946020939093013593505050565b60008060006060848603121561262a57600080fd5b612633846125cf565b9250612641602085016125cf565b9150604084013590509250925092565b60006020828403121561266357600080fd5b610bfa826125cf565b6000806040838503121561267f57600080fd5b8235915061268f602084016125cf565b90509250929050565b600080604083850312156126ab57600080fd5b6126b4836125cf565b9150602083013580151581146126c957600080fd5b809150509250929050565b634e487b7160e01b600052604160045260246000fd5b6000806000806080858703121561270057600080fd5b612709856125cf565b9350612717602086016125cf565b925060408501359150606085013567ffffffffffffffff8082111561273b57600080fd5b818701915087601f83011261274f57600080fd5b813581811115612761576127616126d4565b604051601f8201601f19908116603f01168101908382118183101715612789576127896126d4565b816040528281528a60208487010111156127a257600080fd5b82602086016020830137600060208483010152809550505050505092959194509250565b6000806000604084860312156127db57600080fd5b83359250602084013567ffffffffffffffff808211156127fa57600080fd5b818601915086601f83011261280e57600080fd5b81358181111561281d57600080fd5b87602082850101111561282f57600080fd5b6020830194508093505050509250925092565b6000806040838503121561285557600080fd5b61285e836125cf565b915061268f602084016125cf565b600181811c9082168061288057607f821691505b602082108114156128a157634e487b7160e01b600052602260045260246000fd5b50919050565b60208082526031908201527f4552433732313a207472616e736665722063616c6c6572206973206e6f74206f6040820152701ddb995c881b9bdc88185c1c1c9bdd9959607a1b606082015260800190565b6000835161290a81846020880161254b565b83519083019061291e81836020880161254b565b01949350505050565b6bffffffffffffffffffffffff19606096871b8116825260148201959095529290941b90921660348201526048810191909152606881019190915260880190565b634e487b7160e01b600052601160045260246000fd5b6000821982111561299157612991612968565b500190565b6040815260006129a96040830185612577565b905060018060a01b03831660208301529392505050565b6000828210156129d2576129d2612968565b500390565b7f416363657373436f6e74726f6c3a206163636f756e7420000000000000000000815260008351612a0f81601785016020880161254b565b7001034b99036b4b9b9b4b733903937b6329607d1b6017918401918201528351612a4081602884016020880161254b565b01602801949350505050565b60208082526032908201527f4552433732313a207472616e7366657220746f206e6f6e20455243373231526560408201527131b2b4bb32b91034b6b83632b6b2b73a32b960711b606082015260800190565b6000600019821415612ab257612ab2612968565b5060010190565b634e487b7160e01b600052601260045260246000fd5b600082612ade57612ade612ab9565b500490565b600082612af257612af2612ab9565b500690565b634e487b7160e01b600052603260045260246000fd5b604081526000612b206040830185612577565b90508260208301529392505050565b6000816000190483118215151615612b4957612b49612968565b500290565b600081612b5d57612b5d612968565b506000190190565b6001600160a01b0385811682528416602082015260408101839052608060608201819052600090612b9890830184612577565b9695505050505050565b600060208284031215612bb457600080fd5b8151610bfa81612518565b634e487b7160e01b600052602160045260246000fdfea2646970667358221220fcecde493824d7d36b734aa3b3b49a39e5378a59ca121f98d696bb0a7808caff64736f6c634300080a0033e2f4eaae4a9751e85a3e4a7b9587827a877f29914755229b07a7b2da98285f70",
    "sourcePath": "/root/code/0xidentity/infra/contracts/LegatoID.sol",
    "compiler": {
        "name": "solc",
        "version": "0.8.10+commit.fc410830"
    },
    "functionHashes": {
        "DEFAULT_ADMIN_ROLE()": "a217fddf",
        "ID_OWNER_ROLE()": "358ff1d2",
        "MINT_COST_PER_TOKEN()": "2dc2c007",
        "SIGNER_ROLE()": "a1ebf35d",
        "approve(address,uint256)": "095ea7b3",
        "balanceOf(address)": "70a08231",
        "burn(uint256,bytes)": "fe9d9303",
        "getApproved(uint256)": "081812fc",
        "getNonce(address)": "2d0335ab",
        "getRoleAdmin(bytes32)": "248a9ca3",
        "grantRole(bytes32,address)": "2f2ff15d",
        "hasRole(bytes32,address)": "91d14854",
        "isApprovedForAll(address,address)": "e985e9c5",
        "mint(uint256,bytes)": "db7fd408",
        "name()": "06fdde03",
        "nonces(address)": "7ecebe00",
        "owner()": "8da5cb5b",
        "ownerOf(uint256)": "6352211e",
        "renounceOwnership()": "715018a6",
        "renounceRole(bytes32,address)": "36568abe",
        "revokeRole(bytes32,address)": "d547741f",
        "safeTransferFrom(address,address,uint256)": "42842e0e",
        "safeTransferFrom(address,address,uint256,bytes)": "b88d4fde",
        "setApprovalForAll(address,bool)": "a22cb465",
        "supportsInterface(bytes4)": "01ffc9a7",
        "symbol()": "95d89b41",
        "tokenURI(uint256)": "c87b56dd",
        "transferFrom(address,address,uint256)": "23b872dd",
        "transferOwnership(address)": "f2fde38b"
    },
    "gasEstimates": {
        "creation": {
            "codeDepositCost": "2255000",
            "executionCost": "infinite",
            "totalCost": "infinite"
        },
        "external": {
            "DEFAULT_ADMIN_ROLE()": "306",
            "ID_OWNER_ROLE()": "285",
            "MINT_COST_PER_TOKEN()": "241",
            "SIGNER_ROLE()": "284",
            "approve(address,uint256)": "infinite",
            "balanceOf(address)": "2700",
            "burn(uint256,bytes)": "infinite",
            "getApproved(uint256)": "4783",
            "getNonce(address)": "2649",
            "getRoleAdmin(bytes32)": "2534",
            "grantRole(bytes32,address)": "infinite",
            "hasRole(bytes32,address)": "2699",
            "isApprovedForAll(address,address)": "infinite",
            "mint(uint256,bytes)": "infinite",
            "name()": "infinite",
            "nonces(address)": "2587",
            "owner()": "2421",
            "ownerOf(uint256)": "2645",
            "renounceOwnership()": "28160",
            "renounceRole(bytes32,address)": "29046",
            "revokeRole(bytes32,address)": "infinite",
            "safeTransferFrom(address,address,uint256)": "infinite",
            "safeTransferFrom(address,address,uint256,bytes)": "infinite",
            "setApprovalForAll(address,bool)": "26731",
            "supportsInterface(bytes4)": "infinite",
            "symbol()": "infinite",
            "tokenURI(uint256)": "infinite",
            "transferFrom(address,address,uint256)": "infinite",
            "transferOwnership(address)": "28397"
        },
        "internal": {
            "_beforeTokenTransfer(address,address,uint256)": "infinite"
        }
    }
}